:020000040800F2
:1000000000000220F90E0008C3240008C5240008DF
:10001000C7240008C9240008CB2400080000000001
:10002000000000000000000000000000CD240008D7
:10003000CF24000800000000D1240008D3240008C9
:10004000490F0008490F0008490F0008490F000830
:10005000490F0008490F0008490F0008490F000820
:10006000490F0008490F0008490F0008490F000810
:10007000490F0008490F0008490F0008490F000800
:10008000490F0008490F0008490F0008490F0008F0
:10009000490F0008490F0008490F0008490F0008E0
:1000A000490F0008490F0008490F0008490F0008D0
:1000B000490F0008490F0008490F0008490F0008C0
:1000C000490F0008490F0008490F0008490F0008B0
:1000D000490F0008490F0008490F0008490F0008A0
:1000E000490F0008490F0008490F0008490F000890
:1000F000490F0008490F0008490F0008490F000880
:10010000490F0008490F0008490F0008490F00086F
:10011000490F0008490F0008490F0008490F00085F
:10012000490F0008490F0008490F0008490F00084F
:10013000490F00080000000000000000490F0008FF
:10014000490F0008490F0008490F0008490F00082F
:10015000490F0008490F0008490F0008490F00081F
:10016000490F0008490F0008490F0008490F00080F
:10017000490F0008490F0008490F0008000000005F
:1001800000000000490F000800000000000000000F
:10019000490F00080000000000000000490F00089F
:1001A000000000000000000000000000490F0008EF
:1001B000490F0008490F0008490F0008490F0008BF
:0401C000490F0008DB
:1001D00010B5054C237833B9044B13B10448AFF381
:1001E00000800123237010BD800500200000000066
:1001F0006C70000808B5034B1BB103490348AFF30B
:10020000008008BD00000000840500206C7000081C
:10021000034613F8012B002AFBD1181A0138704746
:1002200001F0FF01102A2BDB10F0070F08D010F8A7
:10023000013B013A8B422DD010F0070F42B3F6D1AB
:10024000F0B441EA012141EA014122F007047FF0C4
:1002500000070023F0E80256083C85EA010586EA1B
:10026000010685FA47F5A3FA87F586FA47F6A5FA57
:1002700087F68EB9EED1F0BC01F0FF0102F0070263
:1002800032B110F8013B013A83EA010313B1F8D10E
:100290000020704701387047002D06BF35460338EF
:1002A000073815F0010F07D1013015F4807F02BF28
:1002B000013015F4C03F0130F0BC0138704700BF79
:1002C00081F0004102E000BF83F0004330B54FEA07
:1002D00041044FEA430594EA050F08BF90EA020F74
:1002E0001FBF54EA000C55EA020C7FEA645C7FEA07
:1002F000655C00F0E2804FEA5454D4EB5555B8BF2A
:100300006D420CDD2C4480EA020281EA030382EA9A
:10031000000083EA010180EA020281EA0303362D2C
:1003200088BF30BD11F0004F4FEA01314FF4801CFF
:100330004CEA113102D0404261EB410113F0004F11
:100340004FEA03334CEA133302D0524263EB4303C8
:1003500094EA050F00F0A780A4F10104D5F1200E66
:100360000DDB02FA0EFC22FA05F2801841F10001C1
:1003700003FA0EF2801843FA05F359410EE0A5F195
:1003800020050EF1200E012A03FA0EFC28BF4CF0C6
:10039000020C43FA05F3C01851EBE37101F000457C
:1003A00007D54FF0000EDCF1000C7EEB00006EEB89
:1003B0000101B1F5801F1BD3B1F5001F0CD3490813
:1003C0005FEA30004FEA3C0C04F101044FEA44526A
:1003D00012F5800F80F09A80BCF1004F08BF5FEAF1
:1003E000500C50F1000041EB045141EA050130BDD1
:1003F0005FEA4C0C404141EB010111F4801FA4F174
:100400000104E9D191F0000F04BF01460020B1FAC8
:1004100081F308BF2033A3F10B03B3F120020CDA00
:100420000C3208DD02F1140CC2F10C0201FA0CF0DE
:1004300021FA02F10CE002F11402D8BFC2F1200C43
:1004400001FA02F120FA0CFCDCBF41EA0C019040F9
:10045000E41AA2BF01EB0451294330BD6FEA040442
:100460001F3C1CDA0C340EDC04F11404C4F120022D
:1004700020FA04F001FA02F340EA030021FA04F33F
:1004800045EA030130BDC4F10C04C4F1200220FA96
:1004900002F001FA04F340EA0300294630BD21FAD4
:1004A00004F0294630BD94F0000F83F4801306BF9A
:1004B00081F480110134013D4EE77FEA645C18BF8E
:1004C0007FEA655C29D094EA050F08BF90EA020F25
:1004D00005D054EA000C04BF1946104630BD91EA1D
:1004E000030F1EBF0021002030BD5FEA545C05D120
:1004F0004000494128BF41F0004130BD14F580045F
:100500003CBF01F5801130BD01F0004545F0FE41D2
:1005100041F470014FF0000030BD7FEA645C1ABF07
:10052000194610467FEA655C1CBF0B46024650EA3E
:10053000013406BF52EA033591EA030F41F400216A
:1005400030BD00BF90F0000F04BF0021704730B5F0
:100550004FF4806404F132044FF000054FF00001C5
:1005600050E700BF90F0000F04BF0021704730B586
:100570004FF4806404F1320410F0004548BF40425B
:100580004FF000013EE700BF42004FEAE2014FEAB0
:1005900031014FEA02701FBF12F07F4393F07F4F8B
:1005A00081F06051704792F0000F14BF93F07F4FBD
:1005B000704730B54FF4607401F0004521F0004100
:1005C00020E700BF50EA010208BF704730B54FF086
:1005D00000050AE050EA010208BF704730B511F08B
:1005E000004502D5404261EB41014FF4806404F1C3
:1005F00032045FEA915C3FF4DCAE4FF003025FEA45
:10060000DC0C18BF03325FEADC0C18BF033202EBCC
:10061000DC02C2F1200300FA03FC20FA02F001FA26
:1006200003FE40EA0E0021FA02F11444C1E600BFC5
:1006300070B54FF0FF0C4CF4E06C1CEA11541DBF78
:100640001CEA135594EA0C0F95EA0C0F00F0DEF843
:100650002C4481EA030621EA4C5123EA4C5350EA28
:10066000013518BF52EA033541F4801143F4801379
:1006700038D0A0FB02CE4FF00005E1FB02E506F00A
:100680000042E0FB03E54FF00006E1FB03569CF05F
:10069000000F18BF4EF0010EA4F1FF04B6F5007F65
:1006A00064F5407404D25FEA4E0E6D4146EB0606D7
:1006B00042EAC62141EA55514FEAC52040EA5E5060
:1006C0004FEACE2EB4F1FD0C88BFBCF5E06F1ED80A
:1006D000BEF1004F08BF5FEA500E50F1000041EB41
:1006E000045170BD06F0004646EA010140EA0200EE
:1006F00081EA0301B4EB5C04C2BFD4EB0C0541EA10
:10070000045170BD41F480114FF0000E013C00F324
:10071000AB8014F1360FDEBF002001F0004170BD48
:10072000C4F10004203C35DA0C341BDC04F1140461
:10073000C4F1200500FA05F320FA04F001FA05F2ED
:1007400040EA020001F0004221F0004110EBD370BA
:1007500021FA04F642EB06015EEA430E08BF20EAE6
:10076000D37070BDC4F10C04C4F1200500FA04F389
:1007700020FA05F001FA04F240EA020001F000411B
:1007800010EBD37041F100015EEA430E08BF20EA8E
:10079000D37070BDC4F1200500FA05F24EEA020ED6
:1007A00020FA04F301FA05F243EA020321FA04F005
:1007B00001F0004121FA04F220EA020000EBD370BC
:1007C0005EEA430E08BF20EAD37070BD94F0000FBC
:1007D0000FD101F00046400041EB010111F4801FF0
:1007E00008BF013CF7D041EA060195F0000F18BFA1
:1007F000704703F00046520043EB030313F4801FDD
:1008000008BF013DF7D043EA0603704794EA0C0F96
:100810000CEA135518BF95EA0C0F0CD050EA4106AC
:1008200018BF52EA4306D1D181EA030101F0004129
:100830004FF0000070BD50EA410606BF1046194651
:1008400052EA430619D094EA0C0F02D150EA01365D
:1008500013D195EA0C0F05D152EA03361CBF10469E
:1008600019460AD181EA030101F0004141F0FE413D
:1008700041F470014FF0000070BD41F0FE4141F4C1
:10088000780170BD70B54FF0FF0C4CF4E06C1CEAC1
:1008900011541DBF1CEA135594EA0C0F95EA0C0F76
:1008A00000F0A7F8A4EB050481EA030E52EA033531
:1008B0004FEA013100F088804FEA03334FF0805552
:1008C00045EA131343EA12634FEA022245EA11157F
:1008D00045EA10654FEA00260EF000419D4208BF30
:1008E000964244F1FD0404F5407402D25B084FEADD
:1008F0003202B61A65EB03055B084FEA32024FF489
:1009000080104FF4002CB6EB020E75EB030E22BFE5
:10091000B61A754640EA0C005B084FEA3202B6EBA5
:10092000020E75EB030E22BFB61A754640EA5C0054
:100930005B084FEA3202B6EB020E75EB030E22BFE4
:10094000B61A754640EA9C005B084FEA3202B6EBE5
:10095000020E75EB030E22BFB61A754640EADC00A4
:1009600055EA060E18D04FEA051545EA16754FEA06
:1009700006164FEAC30343EA52734FEAC2025FEA24
:100980001C1CC0D111F4801F0BD141EA00014FF0B3
:1009900000004FF0004CB6E711F4801F04BF014384
:1009A0000020B4F1FD0C88BFBCF5E06F3FF6AFAEA0
:1009B000B5EB030C04BFB6EB020C5FEA500C50F130
:1009C000000041EB045170BD0EF0004E4EEA1131B3
:1009D00014EB5C04C2BFD4EB0C0541EA045170BDBA
:1009E00041F480114FF0000E013C90E645EA060EFE
:1009F0008DE60CEA135594EA0C0F08BF95EA0C0F2C
:100A00003FF43BAF94EA0C0F0AD150EA01347FF473
:100A100034AF95EA0C0F7FF425AF104619462CE74A
:100A200095EA0C0F06D152EA03353FF4FDAE1046AD
:100A3000194622E750EA410618BF52EA43067FF4FE
:100A4000C5AE50EA41047FF40DAF52EA43057FF48E
:100A5000EBAE12E74FF0FF3C06E000BF4FF0010C99
:100A600002E000BF4FF0010C4DF804CD4FEA410CFD
:100A70007FEA6C5C4FEA430C18BF7FEA6C5C1BD0CA
:100A800001B050EA410C0CBF52EA430C91EA030F4B
:100A900002BF90EA020F0020704710F1000F91EAA8
:100AA000030F58BF994208BF90422CBFD8176FEA76
:100AB000E37040F0010070474FEA410C7FEA6C5C44
:100AC00002D150EA013C07D14FEA430C7FEA6C5C4B
:100AD000D6D152EA033CD3D05DF8040B704700BF77
:100AE0008446104662468C461946634600E000BFC5
:100AF00001B5FFF7B7FF002848BF10F1000F01BD97
:100B00004DF808EDFFF7F4FF0CBF012000205DF861
:100B100008FB00BF4DF808EDFFF7EAFF34BF0120E6
:100B200000205DF808FB00BF4DF808EDFFF7E0FF7F
:100B300094BF012000205DF808FB00BF4DF808EDD0
:100B4000FFF7CEFF94BF012000205DF808FB00BF37
:100B50004DF808EDFFF7C4FF34BF012000205DF819
:100B600008FB00BF4FEA410C7FEA6C5C02D150EAFF
:100B7000013C0AD14FEA430C7FEA6C5C02D152EA95
:100B8000033C02D14FF0000070474FF00100704766
:100B90004FEA410212F5001215D211D56FF47873A5
:100BA000B3EB625212D94FEAC12343F0004343EA48
:100BB000505311F0004F23FA02F018BF4042704723
:100BC0004FF00000704750EA013005D111F00040AD
:100BD00008BF6FF0004070474FF00000704700BF43
:100BE00053B94AB9002908BF00281CBF4FF0FF3194
:100BF0004FF0FF3000F07EB9ADF1080C6DE904CE86
:100C000000F006F8DDF804E0DDE9022304B07047E7
:100C10002DE9F0478C460E460446089D002B50D126
:100C20008A4217466CD9B2FA82FEBEF1000F0BD091
:100C3000CEF1200420FA04F401FA0EF644EA060C80
:100C400002FA0EF700FA0EF44FEA1749220CBCFB29
:100C5000F9F01FFA87F809FB10C642EA064600FBC6
:100C600008F3B34209D9F61900F1FF3280F022816E
:100C7000B34240F21F8102383E44F61AA2B2B6FBDC
:100C8000F9F309FB136642EA064403FB08F8A045A2
:100C900009D9E41903F1FF3280F00A81A04540F23E
:100CA0000781023B3C44C8EB040443EA00400021B6
:100CB000002D62D024FA0EF400232C606B60BDE896
:100CC000F0878B4207D9002D55D0002185E84100DF
:100CD0000846BDE8F087B3FA83F1002940F0908020
:100CE000B34202D3824200F2F880841A66EB030614
:100CF0000120B446002D40D085E81010BDE8F087F3
:100D000012B90127B7FBF2F7B7FA87FEBEF1000F61
:100D100035D1F31B4FEA17481FFA87FC0121B3FBBB
:100D2000F8F0220C08FB103642EA06460CFB00F3F2
:100D3000B34207D9F61900F1FF3202D2B34200F2F2
:100D4000CE801046F61AA2B2B6FBF8F308FB136683
:100D500042EA06440CFB03FCA44507D9E41903F15D
:100D6000FF3202D2A44500F2B5801346CCEB040456
:100D700043EA00409CE729462846BDE8F087CEF1CB
:100D8000200106FA0EF307FA0EF720FA01F94FEAEE
:100D90001748CE4049EA0309B6FBF8FA4FEA19446E
:100DA00008FB1A661FFA87FC44EA06430AFB0CF2AA
:100DB0009A4200FA0EF40AD9DB190AF1FF3180F0E9
:100DC00087809A4240F28480AAF1020A3B449B1A2F
:100DD0001FFA89F9B3FBF8F108FB113349EA034321
:100DE00001FB0CF69E4207D9DB1901F1FF326BD2F1
:100DF0009E4269D902393B449B1B41EA0A418EE776
:100E0000C1F1200E22FA0EF48B40234320FA0EF794
:100E100006FA01F44FEA134C26FA0EF63C43B6FBF1
:100E2000FCF9270C0CFB19661FFA83F847EA064603
:100E300009FB08F7B74202FA01F200FA01FA08D9F1
:100E4000F61809F1FF3041D2B7423FD9A9F10209A2
:100E50001E44F61BA0B2B6FBFCF40CFB146640EA81
:100E6000064704FB08F8B84507D9FF1804F1FF301E
:100E700028D2B84526D9023C1F4444EA0940C8EBB1
:100E80000707A0FB02894F4544464E4614D329D09C
:100E900065B3BAEB040367EB060707FA0EFECB4017
:100EA000CF404EEA030385E888000021BDE8F087C3
:100EB0001346F8E61046E0E6B8EB020469EB0306D9
:100EC0000138E5E70446D8E7114695E78146C0E7D3
:100ED0008A467CE7023B3C4448E708460AE702387A
:100EE0003E442FE7C245E7D33E46D1E72946BDE859
:100EF000F08700BF704700BFDFF834D0002103E067
:100F00000C4B5B58435004310B480C4B42189A422F
:100F1000F6D30B4A02E0002342F8043B094B9A4205
:100F2000F9D300F013F801F0DBFA01F05DFA704735
:100F3000000002205C7300080000002080050020F3
:100F40008005002030060020FEE700000F49D1F8A0
:100F5000883043F47003C1F888300D4B1A680020C4
:100F600042F001021A6098601A6822F0847222F43A
:100F700080321A60074A5A601A6822F480221A6086
:100F8000D8604FF000638B60704700BF00ED00E059
:100F9000003802401030002410B5084B0446186891
:100FA0004FF47A73B0FBF3F000F086F8002221468C
:100FB0004FF0FF3000F04CF8002010BD0000002082
:100FC00008B50B4B1A6842F400721A601A6842F4B2
:100FD00080621A601A6842F480721A60032000F07E
:100FE00025F80020FFF7D8FF01F03BFA002008BDEC
:100FF000003C0240024A136801331360704700BF8F
:10100000D4050020014B1868704700BFD4050020AC
:1010100013B50190FFF7F6FF0446FFF7F3FF019BBE
:10102000001B9842F9D302B010BD0000074AD368F4
:1010300023F4E0631B041B0C43F0BF63000243F482
:10104000003300F4E0600343D360704700ED00E03C
:10105000174BDB68C3F3022330B5C3F107041D1D32
:10106000042C28BF0424062D4FF0010505FA04F4D2
:1010700004F1FF348CBF033B00230C409C4005FA75
:1010800003F3013B1A40002842EA04024FEA02122D
:10109000AFBF00F1604000F00F00064BD2B2A5BF19
:1010A00000F56140D2B21A5480F8002330BD00BF71
:1010B00000ED00E014ED00E00138B0F1807F0AD2CD
:1010C000064B074A5860F02182F8231000200722BF
:1010D00098601A6070470120704700BF10E000E080
:1010E00000ED00E0044B1A6804280CBF42F0040233
:1010F00022F004021A60704710E000E0704708B563
:10110000FFF7FCFF08BD00002DE9F04F674F0B68AB
:10111000DFF8A0C1DFF8A08185B000220193BE46B0
:101120000124019B944034EA030340F0B7804D68EA
:1011300025F0100ABAF1020F14D14FEAD20900EBE0
:10114000890902F0070BD9F820604FEA8B0B0F23B7
:1011500003FA0BF326EA03060B6903FA0BF3334396
:10116000C9F820304FEA420B4FF00309036809FA2F
:101170000BF96FEA090905F0030603EA090306FA09
:101180000BF60AF1FF3A3343BAF1010F03600FD8AF
:101190008368CE6809EA030306FA0BF61E438660ED
:1011A0004368C5F3001623EA0403964033434360C3
:1011B000C36809EA03098B6803FA0BF343EA0903DE
:1011C000C360EB006AD500230393DCF84460384B1E
:1011D00046F48046CCF84460DCF8446022F0030911
:1011E00009F1804906F4804609F59C39039602F01E
:1011F000030A039ED9F808B04FEA8A0A0F2606FAB6
:101200000AF698422BEA060618D003F58063984246
:1012100016D003F58063984214D003F5806398429A
:1012200012D003F58063984210D0404510D003F5EA
:101230000063984214BF072306230AE0002308E056
:10124000012306E0022304E0032302E0042300E07C
:10125000052303FA0AF33343C9F808303B68E64331
:1012600015F4803F0CBF33402343CEF80030DEF846
:10127000043015F4003F0CBF334023437B60BB6850
:1012800015F4801F0CBF33402343CEF80830DEF83E
:101290000C30AD0254BF33402343FB600132102AAF
:1012A0007FF43EAF05B0BDE8F08F00BF003C0140C9
:1012B0000000024000380240001402400369194255
:1012C00014BF01200020704702B9090481617047F2
:1012D0000268536913F480630DD06FF48063536127
:1012E0000423036420220023036380F83C3080F849
:1012F0003D2001207047184670472DE9F843044609
:101300000E4617469946C1F307482568B8F1010F04
:101310000CBF6869A869C04380B2304214BF012085
:10132000002048B36B695A0512D52B6843F400734B
:101330002B606FF480636B610423236420220023FD
:10134000236384F83C3084F83D200120BDE8F88315
:101350007B1CDAD04FB900232022236384F83C3071
:1013600084F83D200320BDE8F883FFF74BFEC9EB6E
:1013700000008742C9D2EEE7BDE8F8832DE9F843C3
:10138000089D04460E4690461F46C1F30749236850
:10139000B9F1010F0CBF58699869C04380B230425F
:1013A0000CBF01230023434514D17B1CEFD05FB950
:1013B00000232022236384F83C3084F83D2003205E
:1013C00084F83E30BDE8F883FFF71CFE401B8742DF
:1013D000DDD2EDE70020BDE8F88370B504460D4688
:1013E000164623685B691B0619D42046FFF770FF79
:1013F000B8B96A1CF5D065B9236C43F020032364A7
:1014000020220023236384F83C3084F83D2003200D
:1014100070BDFFF7F7FD801B8542E2D2ECE70020AC
:1014200070BD012070BD70B504460D461646236898
:101430005B695B0719D42046FFF74AFFB8B96A1CFD
:10144000F5D065B9236C43F02003236420220023E8
:10145000236384F83C3084F83D20032070BDFFF7FF
:10146000D1FD801B8542E2D2ECE7002070BD012057
:1014700070BD000070B50446002863D090F83D3080
:1014800003F0FF021BB980F83C2000F03BFF22680C
:101490002D4D242384F83D30136823F0010313609D
:1014A00000F0E6F9636822682849B0FBF1F1AB422D
:1014B0002E4688BF4FF49675516082BF69434FF442
:1014C0007A75B1FBF5F1B34201F10101116208D85F
:1014D0005B00B0FBF3F0C0F30B03032B98BF0420B9
:1014E00016E0A16849B903EB4303B0FBF3F0C0F386
:1014F0000B0363B140F400400AE019214B43B0FBF9
:10150000F3F0C0F30B0313B140F4404000E00120BE
:10151000E169236AD0610B4313602169E3680B43DF
:1015200093606169A3690B43D360136843F00103BF
:10153000136000202023206484F83D30206384F869
:101540003E0070BD012070BDA086010040420F002A
:101550002DE9FF4104461F460D469046FFF752FD18
:1015600094F83D30202B064601D00225BCE00090C7
:10157000192301225E492046FFF700FF0028F4D11D
:1015800094F83C30012BF0D0012384F83C302368E0
:101590001A68D2075EBF1A6842F001021A601A6820
:1015A00022F400621A60212284F83D20102284F87F
:1015B0003E2000222264A2F580326785E262628DBD
:1015C0002285E26AC4F82480042A07D0012A05D0C3
:1015D00012F5803F02D0226B122A03D11A6842F41E
:1015E00080721A6000960A9B00224FF0011120467B
:1015F000FFF7C4FE10BB23692268B3F5804F03D107
:1016000005F0FE0515610FE0EB1103F0060343F052
:10161000F003136137490A9A33462046FFF76DFEFF
:1016200058B92368EDB21D6133460A9A3249204603
:10163000FFF763FE0546002835D0236C236C042B8E
:101640004FF0000302D184F83C302AE084F83C30AB
:10165000032549E0616A2068228D4B1C63620B7888
:101660000361638D013B9BB26385531E23854369F0
:101670005B0720D432460A992046FFF7D4FE40B9D2
:10168000238D2BB332460A992046FFF7A6FE002889
:10169000E0D0236C042BDBD12268136843F4007381
:1016A0001360012520E0236803905A6903929B6927
:1016B0000393039BE4E7002FDCD08B1C63624B7821
:1016C0000361638D013B9BB2023A63852285D1E7BA
:1016D00021680A6842F400720A60202284F83D20E2
:1016E00084F83C3084F83E30284604B0BDE8F081F0
:1016F000020010000800010002000100554B1A68AA
:1017000002F00F028A422DE9F04105460E460AD347
:101710002968880711D55048836823F0F002AB6828
:101720001343836009E0CAB21A701B6803F00F0309
:101730009942EDD00120BDE8F081C90706D4454BA0
:101740001A6802F00F02964251D357E06B68424A82
:10175000012B03D1126812F4003F08E0991E012901
:10176000126802D812F0007F01E012F0020FE1D0FF
:10177000394CA26822F003021343A360FFF742FC36
:101780006B68012B074641F288380CD1A36803F03F
:101790000C03042BD3D0FFF735FCC01B4045F5D913
:1017A0000320BDE8F081022B0AD1A36803F00C03EB
:1017B000082BC4D0FFF726FCC01B4045F5D9EFE746
:1017C000032B0FD1A36803F00C030C2BB7D0FFF74A
:1017D00019FCC01B4045F5D9E2E7FFF713FCC01B1D
:1017E0004045DDD8A36813F00C0FF6D1A7E7F2B29D
:1017F0001A701B6803F00F039E429BD129684A07A9
:1018000006D51548836823F4E052EB6813438360E0
:101810000B0707D5104A2969936823F4604343EA0C
:10182000C103936000F0BEF90B4BF0229B6892FA63
:10183000A2F2B2FA82F203F0F003D340074AD35C7B
:10184000D840074B18600020FFF7A6FB0020BDE83A
:10185000F08100BF003C024000380240A870000840
:1018600000000020014B1868704700BF00000020F6
:10187000084B4FF4E0529B6892FAA2F2B2FA82F25D
:1018800003F4E053D340044AD35C044A1068D840C0
:10189000704700BF00380240A87000080000002018
:1018A00003682DE9F341DE07044603D423689D074E
:1018B00040D499E0A64B9A6802F00C02042A10D09A
:1018C0009A6802F00C02082A02D15B68580208D418
:1018D0009F4A936803F00C030C2B0BD153685902F9
:1018E00008D59B4B1B689A03E0D56368002BDDD1BC
:1018F000012054E1974B22791A7063686BB1FFF7AE
:1019000081FB934D06462B689B03CFD4FFF77AFBF0
:10191000801B6428F7D9032041E1FFF773FB8C4D4E
:1019200006462B689F03C1D5FFF76CFB801B64281C
:10193000F7D9F0E7864B9A6812F00C0F10D09A682E
:1019400002F00C02082A02D15B68580208D5804ACE
:10195000936803F00C030C2B17D15368590214D46D
:101960007B4B1A68920702D5E268012AC0D11A6837
:10197000F82191FAA1F12069B1FA81F100FA01F19F
:1019800022F0F8020A431A602EE0E268724BEAB1D4
:1019900001221A60FFF736FB6D4D06462B686C4836
:1019A0009B0705D4FFF72EFB801B0228F6D9B2E770
:1019B0000368F82292FAA2F22169B2FA82F201FADD
:1019C00002F223F0F803134303600DE01A60FFF7FF
:1019D00019FB5F4D06462B689F0705D5FFF712FBE5
:1019E000801B0228F7D996E723681E0703D42368D3
:1019F0005D0745D51FE06269584B72B101221A603C
:101A0000FFF700FB524D06466B6F9807EFD4FFF7C8
:101A1000F9FA801B0228F7D97DE71A60FFF7F2FA7E
:101A20004B4D06466B6F9907E1D5FFF7EBFA801B2C
:101A30000228F7D96FE700230193454B484D1A6CF4
:101A400042F080521A641B6C03F080530193019B97
:101A50002B6843F480732B60FFF7D4FA06462B689B
:101A6000DA0510D53F4B227A1A70A368BBB1FFF795
:101A7000C9FA374D064641F288372B6F9B0708D5C8
:101A8000A269DAB962E0FFF7BDFA801B0228E6D945
:101A900041E7FFF7B7FA801BB842EED93BE7FFF703
:101AA000B1FA2B4D064641F288372B6F9807E7D5E0
:101AB000FFF7A8FA801BB842F7D92CE7244DAB6892
:101AC00003F00C03082B3FF413AF274E0023022A28
:101AD000336058D1FFF796FA80462B681C4F990166
:101AE00044D447F6C07292FAA2F24FF44033B2FAED
:101AF00082FC93FAA3F34FF07061B3FA83FE91FA7C
:101B0000A1F14FF0E042B1FA81F592FAA2F2E36955
:101B1000B2FA82F0226A43EA0201626AA36A02FA16
:101B20000CF211435A08013A02FA0EF30B43E16A30
:101B3000226BA9400B43824013437B600123336037
:101B4000FFF760FA04463B689A0116D5002026E0AC
:101B5000003802400238024000004742800E4742EF
:101B6000007000407038024060004742FFF74AFAB8
:101B7000C8EB00000228B0D9CDE6FFF743FA001BFE
:101B80000228E0D9C7E6FFF73DFA04462B689B011F
:101B9000DCD5FFF737FA001B0228F7D9BBE602B005
:101BA000BDE8F0813049886800F00C00082808D0B2
:101BB0000C282FD02D4A2E4B04280CBF1846104657
:101BC000704748684B6800F03F0013F4800F47F6F9
:101BD000C0724B6892FAA2F247F6C071B2FA82F272
:101BE00001EA030121FA02F114BF214A1F4AB2FBA4
:101BF000F0F01D4A00FB01F352684FF4403090FAB8
:101C0000A0F0B0FA80F002F4403222FA00F0013085
:101C1000400025E048684B6800F03F0013F4800F57
:101C200047F6C0724B6892FAA2F247F6C071B2FA58
:101C300082F201EA030121FA02F114BF0C4A0B4AB5
:101C4000B2FBF0F0084A00FB01F352684FF0E040AD
:101C500090FAA0F0B0FA80F002F0E04222FA00F030
:101C6000B3FBF0F0704700BF003802400024F400DE
:101C700000127A0008B50549002000F0D9F904499E
:101C80000120BDE8084000F0D3B900BF12000020D9
:101C90000A00002007B500F0BDF90A2000F0CEFAD6
:101CA0000C4B33F8022BADF800201B880098ADF8E0
:101CB000043000F001FA1021074800F08FF9019874
:101CC00000F0FAF90548022103B05DF804EB00F0DA
:101CD00085B900BF88700008B8700008C970000896
:101CE00037B504460D4600F095F9074B1B88ADF853
:101CF0000430019800F0E0F92946204603B0BDE821
:101D0000304000F06BB900BF887000081FB58DE847
:101D1000030000F0D1F938B104A89DF8043000F8B0
:101D2000043D012100F05AF905B05DF804FB000004
:101D300007B50246094901A800F072FC084B1A7861
:101D4000587842EA002000F0B7F920B104210DEBE9
:101D5000010000F043F903B05DF804FBCC7000080B
:101D60000600002007B50246094901A800F058FC0A
:101D7000084B1A78587842EA002000F09DF918B113
:101D8000022101A800F02AF903B05DF804FB00BFAE
:101D9000D17000080800002070B5044686B00D46DA
:101DA0001B481021FFF78AFAA8B92378012B12D912
:101DB0002E7886B901232B70206802901022217999
:101DC000029800F0B3F9C0F30723207063705A2023
:101DD00000F034FA2E7020210D48FFF76FFAA8B9F1
:101DE0002378032B12D82E7886B901232B70206814
:101DF000049030222179049800F098F9C0F3072369
:101E0000207063705A2000F019FA2E7006B070BD71
:101E1000000C02402DE9F04F89B00D460DF1200A6B
:101E200002A9002781E80C000AF80D7D80464FF0DA
:101E3000060B514602A8FFF7AFFFAB880137B7FB8F
:101E4000F3F403FB1474002300936A88DEB2B242F9
:101E500048D946B1AA790BFB0681043211F8051C5A
:101E6000D2B291423AD9002C38D10BFB06F608EBDE
:101E700006090193D9F80000B9F804200690ADF8DE
:101E80001C2099F804100698032200F04FF9C0F3C3
:101E9000072208F8060089F8012038F80610ADF886
:101EA0001400220C12041143029800F02BF9B8B967
:101EB00099F80120019B152A06D1D5E902010130CC
:101EC00041F10001C5E902016A880BFB028212F8A8
:101ED000052C152A009A28BF012200920133B4E78D
:101EE000204614E0009B23B1029800F0A0F90120E5
:101EF0000DE0002C9DD102AB93E80300FFF706FF35
:101F0000287AFFF715FF2878FFF72CFF91E709B033
:101F1000BDE8F08F2DE9F04F85B0438886884FF0FB
:101F2000060909FB03F3083323F0070300AF044657
:101F3000ADEB030D002001F059FB00F00FFBE8466C
:101F40004FF0000A0122F6B24FF0040B63885FFAEB
:101F50008AF59D4223D27A6000F028FB1D4B7A68F7
:101F60000340002BBEBF03F1FF3363F003030133D3
:101F7000DBB2591CC9B28A4208BF023309FB05F51E
:101F800008BFD9B208EB0503002208F805100AF1D2
:101F9000010A1A7183F801B05E800A46D6E70E4B3B
:101FA0007E811B883B8101233B7307F1080595E87F
:101FB0000300FFF7ABFE214695E80C004046FFF713
:101FC00029FF044608B9FFF765FE20461437BD46D1
:101FD000BDE8F08F030000800400002007B5072350
:101FE000009302468BB203485021FFF7B1FA03B0C9
:101FF0005DF804FBD805002008B5054801224FF420
:102000000071FFF761F90520BDE80840FFF700B84F
:102010000004024007B5054B02211B88ADF80430CF
:1020200001A8FFF7DBFF03B05DF804FB8C7000082C
:102030001FB5FE238DF8043054238DF805300B783E
:102040008DF807304B788DF808308B788DF8093093
:10205000CB788DF80A300B798DF80B304B798DF8F1
:102060000C308B798DF806008DF80D3001A8CB79F6
:102070008DF80E300B21FFF7B1FF05B05DF804FBC2
:1020800007B5ADF80400013800F0FF00032806D8BA
:102090009DF80530013B132B03D8012005E00448CF
:1020A00000E0044800F042FA002003B05DF804FBB1
:1020B000F1700008D67000081FB5114BADF8040090
:1020C000186803900198FFF7DBFF0446A8B19DF85C
:1020D000042004AB1A449DF8053012F8052C013B8E
:1020E0001344FE228DF808200321452202A88DF812
:1020F00009208DF80A30FFF771FF204604B010BDAB
:102100008E70000882B0ADF80400ADF80010C0B2C7
:10211000C9B2884207D19DF801009DF805301B1A0D
:102120005842584100E0002002B07047F0B5134615
:10213000A5B01022032BADF80400C7B2C0F30726E8
:102140008DF80C208DF8101006D001D8012B02E07C
:10215000102B01D0302B3AD1C3F30111002914BF49
:102160000225002513F003030CBF002402244D1B9D
:102170001C1B6B1C022B05D8012C03DCA31C01D0FB
:1021800064B95DB91F4923462A4606A800F048FAFB
:1021900006A8FEF73DF8014606A821E00198FFF7E2
:1021A0008BFF18B1012103A8FFF718FF3D44344409
:1021B000EFB2E6B28DF804708DF805600198FFF774
:1021C0007BFF78B1012104A8FFF708FF0AE024ACE7
:1021D0000D4B04F8783D2046FEF71AF801462046DC
:1021E000FFF77EFD8DF814709DF814308DF81560A2
:1021F000002063F307009DF8153063F30F2025B02E
:10220000F0BD00BF09710008397100081FB5ADF8B5
:102210000400102301988DF80C30FFF74DFF18B122
:10222000012103A8FFF7DAFE05B05DF804FB82B0D8
:10223000ADF80400019802B0FFF7E8BFFEF7E8BE72
:1022400070B588B01D4B1E48002400941A6B42F0F4
:1022500080021A631A6B02F080020092009A0194C5
:102260001A6B42F008021A631A6B02F0080201921C
:10227000019A02941A6B42F002021A631B6B0494D7
:1022800003F002030293029B0125F02303A90393A9
:102290000595FEF739FF04950A4D05944FF4007635
:1022A00003A9284603960694FEF72EFF22463146E0
:1022B0002846FFF709F808B070BD00BF003802409B
:1022C000000C02400004024008B50C480C4B47F2D9
:1022D000305E80E808404FF4804200238360C36092
:1022E000026143618361C3610362FFF7C3F818B100
:1022F000BDE8084000F0B4B808BD00BFD805002014
:10230000005400407FB50268104B9A421BD14FF435
:10231000C0730193122302930123039303230493B5
:1023200004230DEB03010A480593FEF7EDFE00239D
:102330000093084B1A6C42F400121A641B6C03F4ED
:1023400000130093009B07B05DF804FB00540040AD
:10235000000402400038024010B594B00022204B27
:102360000092196C41F0805119641B6C1D4903F0F7
:1023700080530093009B01920B6823F4404343F485
:1023800080430B600B680D9203F4404301930124DA
:1023900007A8019B07940894FFF782FA014600B151
:1023A000FEE70F2304900590069002A80394029381
:1023B000FFF7A4F9044600B1FEE7FFF753FA4FF424
:1023C0007A73B0FBF3F0FEF777FE0420FEF78AFE87
:1023D000224621464FF0FF30FEF73AFE14B010BD02
:1023E00000380240007000401FB5FEF7E9FDFFF71E
:1023F000B3FFFFF725FFFFF767FFFFF7ADFFFFF71D
:10240000FBFD3220FFF71AFFFFF734FC3220FFF705
:1024100015FFFFF7FFFD114B0FCB8DE80F006C464A
:102420002046FFF777FDB8B19DF8003001338DF8F5
:102430000030BDF804305B10ADF80430BDF8023058
:102440000533ADF80230BDF80630022B84BF03F12E
:10245000FF33ADF80630E3E704B010BD9870000814
:10246000FEE708B50320FEF7E1FD002211466FF0FC
:102470000B00FEF7EDFD002211466FF00A00FEF79B
:10248000E7FD002211466FF00900FEF7E1FD002292
:1024900011466FF00400FEF7DBFD002211466FF0DD
:1024A0000300FEF7D5FD002211466FF00100FEF794
:1024B000CFFD002211464FF0FF30BDE80840FEF787
:1024C000C7BD7047FEE7FEE7FEE7FEE770477047CF
:1024D000704708B5FEF78EFDBDE80840FEF70FBE59
:1024E00070B50E4B0E4CE41AA41000251E46A542F2
:1024F00004D056F8253098470135F8E704F0B6FDCA
:10250000084C094BE41AA41000251E46A54204D02D
:1025100056F8253098470135F8E770BD5473000828
:102520005473000858730008547300080FB40A4B22
:1025300013B51C6824B1A36913B9204603F036F81B
:1025400005AB049AA1680193204601F065F802B03A
:10255000BDE8104004B070470C01002038B5124BA4
:102560001C68A36B0546D3B9182003F04BFA43F25D
:102570000E33A06303804AF6CD33438041F2342307
:1025800083804EF26D63C3804DF6EC6303810523B7
:1025900043810B23838101220023C0E90423A36B21
:1025A00000221D615A6138BD0C010020194B10B585
:1025B0001C68A36BD3B9182003F024FA43F20E333E
:1025C000A06303804AF6CD33438041F234238380F5
:1025D0004EF26D63C3804DF6EC63038105234381A6
:1025E0000B23838101220023C0E90423A16B0A4C41
:1025F0000B694869094A5C4302FB0040A3FB0223C4
:102600000132034443F10003C1E9042323F00040F5
:1026100010BD00BF0C0100202DF451582D7F954CAA
:102620000EB400B59CB04FF402711DABADF81410A0
:10263000029006906FF000410A48049107914FF60E
:10264000FF7153F8042BADF816100068019302A92E
:1026500000F00AF8029B00221A701CB05DF804EB2F
:1026600003B070470C0100202DE9F04FBDB08B4640
:1026700005921F46824603F059F903680D931846E8
:10268000FDF7C6FDBBF80C300890190615D5DBF830
:10269000103093B94021504603F0BCF9CBF800004C
:1026A000CBF8100030B90C23CAF800304FF0FF30DF
:1026B00000F095BF4023CBF814309FED997B8DED52
:1026C000067B00232CAC1F94219320930493119339
:1026D00010930A93059D2B4613F8012B1AB1252A56
:1026E00001D01D46F7E7059BEE1A17D084E8480095
:1026F000219B33442193209B0133072B209301DC42
:10270000083408E01FAA5946504603F0E2FE0028AC
:1027100040F02C862CAC0A9B33440A932B78002B78
:1027200000F01D8600226B1C8DF85F2011464FF0D3
:10273000FF39099215460A205E1C1B780596029304
:10274000029B203B582B00F26382DFE813F05C0011
:10275000610261026B006102610261026102610259
:1027600061026E005900610279007C006102A300E1
:10277000A600A600A600A600A600A600A600A60029
:10278000A6006102610261026102610261026102EE
:10279000610261026102D6000B0161020B0161025C
:1027A000610261026102B9006102610252016102CB
:1027B00061026102610261029901610261026600C7
:1027C00061026102610261026102610261026102F1
:1027D00061026102CD0061000B010B010B01BC0025
:1027E000610061026102BF006102340154016F01A6
:1027F000CA006102800161029B0161026102B301B2
:1028000001222B2102E009B901222021059B93E737
:10281000002A77D08DF85F1074E00AB18DF85F1050
:10282000414B4BE145F00105F0E73E680996002E6B
:1028300007F1040301DB1F46E8E7764209961F46CD
:1028400045F00405E2E7059E059B367802962A2EA0
:1028500003F1010302D04FF000090AE0D7F800901D
:1028600005933E1DB9F1000F3746CFDA4FF0FF391F
:10287000CCE70593029B303B092B08D800FB0939B4
:10288000059B1E4616F8013B02933346F1E749EAE1
:10289000E97955E745F08005B8E700230993029BE5
:1028A000099E303B00FB06330993059B1E4616F834
:1028B000013B0293029B0596303B092BEFD93FE782
:1028C00045F00805A2E745F040059FE7059B1B780A
:1028D0006C2B03D1059B0133059302E045F01005F5
:1028E00094E745F0200591E73B1D039300263B68E4
:1028F0008DF888308DF85F6099E10AB18DF85F102E
:1029000045F01005AA0611D5073727F0070707F18C
:1029100008030393D7E9006717E000BFAFF3008017
:1029200000000000000000007D71000815F0100F8D
:1029300007F1040302D003933E6805E03E68039369
:1029400015F0400F18BF36B2F717002E77F10003CD
:1029500080F2DE8076424FF02D0367EB47078DF85B
:102960005F30D5E00AB18DF85F10073727F0070711
:1029700007F10803039397ED007B8DED067B069B23
:102980001293079B23F0004313934FF0FF32AB4B9E
:10299000DDE91201FEF7E6F8002840F0F1844FF07F
:1029A000FF32A64BDDE91201FEF7BEF8002840F029
:1029B000E78400F0FDBD0AB18DF85F1015F0200F1F
:1029C00007F1040307D00A993A68CE170846314642
:1029D000C2E900010BE0E90606D46A0604D53A68AC
:1029E000BDF82810118002E03A680A9911601F466C
:1029F00070E645F0100515F0200309D0073727F0E1
:102A0000070707F10803D7E90067039300237BE07A
:102A10003A1D15F01001039205D115F0400302D0C4
:102A20003E880027F2E73E6800276DE03B1D0393D8
:102A3000302378228DF86030814B3E681193002757
:102A400045F002058DF86120022302925CE0002629
:102A50003B1DB1450393D7F800808DF85F600ADB1A
:102A60004A4631464046FDF7DBFB002800F0EA808D
:102A7000C8EB0009E7E04046FDF7CAFB8146E2E00B
:102A800045F01005AE0608D5073727F0070707F110
:102A900008030393D7E900670AE03B1D15F0100F08
:102AA000039303D1680601D53E8800E03E68002705
:102AB000012329E00AB18DF85F10614B1193A9063B
:102AC00008D5073727F0070707F108030393D7E96D
:102AD00000670AE03B1D15F0100F039303D16A064F
:102AE00001D53E8800E03E680027EB070BD556EA8B
:102AF000070308D030238DF860309DF808308DF83A
:102B0000613045F00205022300228DF85F2000E0CD
:102B10000123B9F1000FC0F25C8556EA070225F0E7
:102B2000800103D1B9F1000F5FD006E00D46012B03
:102B300025D0022B46D0294607E00D46012B22D096
:102B4000022B3DD02946002600270DF1B008F208DF
:102B500042EA4772F80806F0070307461646303384
:102B600056EA070208F8013DF1D1E80748D5302BB5
:102B700046D0302308F8013C08F1FF3840E0002F30
:102B800008BF0A2E05D20DF1F008303608F8416D65
:102B900029E00DF1B008304639460A220023FEF73D
:102BA0001FF8303208F8012D0023304639460A223A
:102BB000FEF716F806460F4656EA0703EBD112E079
:102BC000002600270DF1B00806F00F03119AD35C20
:102BD00008F8013D330943EA07733A091E461746D0
:102BE00056EA0703F0D129460AE03BB9EA0705D5C2
:102BF0000DF1F008302308F8413D01E00DF1B00877
:102C00004E460DF1B009C8EB09090D4600271BE03F
:102C10000AB18DF85F10029B002B00F0A0839DF895
:102C200008308DF8883000268DF85F6003974FF0EC
:102C3000010937460DF1880806E000BFFFFFEF7F6E
:102C40008E710008064637464E453346B8BF4B46A0
:102C50000B939DF85F3013B10B9B01330B9315F071
:102C6000020314931EBF0B9B02330B9315F08403D6
:102C7000159339D1099B0B9A9B1A002B0C9333DDCA
:102C80000C9B102BA64B236018DD10236360219B47
:102C900010332193209B0133072B209301DC083450
:102CA00008E01FAA5946504603F013FC002840F0E4
:102CB0005D832CAC0C9B103B0C93E1E70C9B636099
:102CC0000C9A219B13442193209B0133072B2093C3
:102CD00001DC083408E01FAA5946504603F0F9FB0E
:102CE000002840F043832CAC9DF85F30BBB10DF160
:102CF0005F03236001236360219B01332193209BA9
:102D00000133072B209301DC083408E01FAA594641
:102D1000504603F0DEFB002840F028832CAC149BC7
:102D2000B3B118AB236002236360219B023321936C
:102D3000209B0133072B209301DC083408E01FAAF5
:102D40005946504603F0C5FB002840F00F832CACD9
:102D5000159B802B35D1099B0B9A9B1A002B30DDDC
:102D6000704A2260102B18DD10226260219A103206
:102D70002192209A0132072A209201DC08340AE0CD
:102D80001FAA594650460C9303F0A3FB002840F0BD
:102D9000ED820C9B2CAC103BE2E7219A636013445C
:102DA0002193209B0133072B209301DC083408E09A
:102DB0001FAA5946504603F08CFB002840F0D682EB
:102DC0002CACC9EB0606002E2EDD564B2360102ED0
:102DD00016DD10236360219B10332193209B013368
:102DE000072B209301DC083408E01FAA59465046FF
:102DF00003F06FFB002840F0B9822CAC103EE4E7F2
:102E0000209B2198666001330644072B219620936E
:102E100001DC083408E01FAA5946504603F059FB6C
:102E2000002840F0A3822CACEB0514D4219B84E84D
:102E300000034B442193209B0133072B209340F345
:102E400044821FAA5946504603F043FB002840F035
:102E50008D822CAC3AE2029B652B40F3AD810022BF
:102E60000023DDE90601FDF74BFE00285ED02E4B66
:102E7000236001236360219B01332193209B013355
:102E8000072B209301DC083408E01FAA594650465E
:102E900003F01FFB002840F069822CAC199B049AB8
:102EA000934202DBEE0740F111820D9B2360089BE9
:102EB0006360089A219B13442193209B0133072BC5
:102EC000209301DC083408E01FAA5946504603F05D
:102ED00000FB002840F04A822CAC049B5E1E002EB2
:102EE00040F3F4810F4F4FF01008102E40F359813A
:102EF000219B10332193209B0133072B84E8800111
:102F0000209301DC083408E01FAA5946504603F01C
:102F1000E0FA002840F02A822CAC103EE5E700BF22
:102F2000A17100085D7100089F710008199B002BBA
:102F30007CDC9F4B236001236360219B0133219341
:102F4000209B0133072B209301DC083408E01FAAE3
:102F50005946504603F0BDFA002840F007822CACD9
:102F6000199B23B9049B13B9E80740F1AF810D9B6E
:102F70002360089B6360089A219B13442193209B44
:102F80000133072B209302DC04F1080308E01FAA99
:102F90005946504603F09DFA002840F0E7812CABDB
:102FA000199E7642002E30DD824F1024102E16DD41
:102FB000219A1F6010322192209A5C600132072A08
:102FC000209201DC083308E01FAA5946504603F05E
:102FD00080FA002840F0CA812CAB103EE6E7754A23
:102FE00083E84400219A1644209A21960132072A48
:102FF000209201DC083308E01FAA5946504603F02E
:1030000068FA002840F0B2812CAB049A5A60049907
:10301000219AC3F800800A442192209A0132072A9B
:1030200020923FF70EAF03F108044FE1049BBB422F
:10303000A8BF3B46002B1E4615DD6360219BC4F8EC
:10304000008033442193209B0133072B209301DC24
:10305000083408E01FAA5946504603F03AFA0028FF
:1030600040F084812CAC002EACBFBE1B3E46002E2F
:1030700030DD4FF010094F4B2360102E16DD219BE1
:10308000C4F8049010332193209B0133072B209325
:1030900001DC083408E01FAA5946504603F019FA2B
:1030A000002840F063812CAC103EE4E7219B666071
:1030B0001E44209B21960133072B209301DC08340A
:1030C00008E01FAA5946504603F003FA002840F0D2
:1030D0004D812CAC199B049A9342474401DBE907CC
:1030E00017D50D9B2360089B6360089A219B1344AE
:1030F0002193209B0133072B209301DC083408E047
:103100001FAA5946504603F0E4F9002840F02E81EA
:103110002CAC049B049A08EB0306199BF61BD31AEC
:103120009E42A8BF1E46002E14DD219B276033441B
:103130002193209B66600133072B209301DC083428
:1031400008E01FAA5946504603F0C3F9002840F092
:103150000D812CAC199B049A002EA2EB0303ACBF8B
:103160009E1B1E46002E40F3B180124F4FF01008F8
:10317000102E16DD219B10332193209B0133072B4A
:1031800084E88001209301DC083408E01FAA594636
:10319000504603F09EF9002840F0E8802CAC103E29
:1031A000E6E7044B84E84800219B1E44219642E652
:1031B0009F7100085D710008049B012B01DCEA0788
:1031C00073D501236360219BC4F8008001332193F0
:1031D000209B0133072B209301DC083408E01FAA51
:1031E0005946504603F075F9002840F0BF802CACDA
:1031F0000D9B2360089B6360089A219B13442193D5
:10320000209B0133072B209301DC083408E01FAA20
:103210005946504603F05DF9002840F0A7802CACD9
:1032200000230022DDE90601FDF76AFC049B5E1E17
:10323000B8B908F1010384E84800219B049A013BD6
:1032400013442193209B0133072B209334DD1FAAC5
:103250005946504603F03DF9002840F087802CACD9
:103260002BE0002E29DDA74F4FF01008102E15DDA2
:10327000219B10332193209B0133072B84E880018D
:10328000209301DC083407E01FAA5946504603F09A
:1032900020F900286AD12CAC103EE7E7994B84E86E
:1032A0004800219B1E442196CCE701236360219BAB
:1032B000C4F800800133C4E708341BAB2360109BC3
:1032C0006360109A219B1344B4E508346B070BD458
:1032D0000A9B099A0B998A42ACBF9B185B180A9308
:1032E000219B002B35D02EE0099B0B9A9D1A002DB7
:1032F000EEDD1026844B2360102D13DD219B6660CC
:1033000010332193209B0133072B209301DC0834D9
:1033100006E01FAA5946504603F0DBF830BB2CAC40
:10332000103DE7E7219B65601D44209B21950133FB
:10333000072B2093CCDD1FAA5946504603F0C9F84D
:103340000028C5D012E01FAA5946504603F0C1F824
:1033500060B900232093039F2CACFFF7BBB9219BDE
:1033600023B11FAA5946504603F0B3F8BBF80C30FE
:1033700013F0400F0A9B18BF4FF0FF3318462EE1A1
:10338000DDE9062310461946FDF7ECFB60B15F4B03
:103390005F4A029925F080054729CCBF90469846A0
:1033A0004FF0030900264EE4B9F1FF3F0AD0029B1B
:1033B00023F02003472B07D1B9F1000F08BF4FF0CE
:1033C000010901E04FF0060945F480730C93079B57
:1033D000002B07DA069B0E93079B03F100430F9324
:1033E0002D2304E09DED067B8DED0E7B00230B93DA
:1033F000029B23F02007462F04D0452F05D109F169
:10340000010603E04E46032101E04E4602211DABBA
:1034100001931AAB0093324619AB9DED0E0B50464B
:1034200001F02AFA472F804602D1EB0740F1CD8008
:1034300008EB0603462F049311D198F80030302B87
:1034400009D100220023DDE90E01FDF759FB10B977
:10345000C6F101061996049A199B1A440492002297
:103460000023DDE90E01FDF74BFB08B9302202E035
:10347000049B1D9307E01D9B0499994203D9591C95
:103480001D911A70F7E71D9B472FC8EB03030493A8
:1034900008D1199BDF1C01DB994568DA029B023BCE
:1034A000029302E0029B652B4ADC199B9DF80820E1
:1034B0008DF86C20013B002B1993BABF5B422D2283
:1034C0002B22092B8DF86D2024DD0DF17B020A20C3
:1034D00093FBF0F100FB11333033092902F8013D71
:1034E0000B46F5DC303302F8013C511E0DF16E0342
:1034F0000DF17B0081421A4613D211F8012B03F81B
:10350000012BF7E75D710008A171000875710008D3
:1035100079710008302213448DF86E208DF86F30D9
:103520001CAA1BABD31A049A1093012A03EB0209BD
:1035300002DC15F0010732D0089B002799442EE0E9
:10354000029B662B13D1199B002B07DDB9F1000FED
:1035500001D1EE0721D5089A134406E0B9F1000F16
:1035600001D1ED0714D5089B01334B4415E0199B9D
:10357000049A934203DBE8070DD5089A06E0049A03
:103580000899002B0A4405DCC3F10103134402E04F
:10359000012302E0134667220292199F99460B9B72
:1035A00013B12D238DF85F300C9D0026FFF74CBB27
:1035B00000220023DDE90601FDF7ACFA10B12D234E
:1035C0008DF85F30074B084AE3E61D9B1B1A0493F6
:1035D0005FE756EA07027FF4AAAAFFF7AFBA3DB049
:1035E000BDE8F08F6D7100087171000813B5084BCC
:1035F000044600226946186802F07CF9002803DBC3
:1036000000981CB1206001E04FF0FF3002B010BD07
:103610000C010020000000002DE9F04FBDB08B46EA
:1036200005921C461F46824602F080F903680D93FE
:103630001846FCF7EDFD0890BAF1000F05D0DAF856
:10364000183013B9504601F0B1FF9D4B9B4502D194
:10365000DAF804B00AE09B4B9B4502D1DAF808B0D7
:1036600004E0994B9B4508BFDAF80CB0BBF90C306D
:10367000980409D4DBF8642043F4005322F4005288
:10368000ABF80C30CBF86420BBF80C30190709D527
:10369000DBF8103033B1BBF80C3003F01A030A2BFF
:1036A00016D109E05946504600F0E6FF0028F2D056
:1036B0004FF0FF3000F0A3BFBBF90E30002B07DB4B
:1036C0002346059A5946504600F0A0FF00F097BFE8
:1036D0009FED797B8DED067B00232CAC1F9421930D
:1036E00020930493119310930A93059D2B4613F88E
:1036F000012B1AB1252A01D01D46F7E7059BEE1ACA
:1037000017D084E84800219B33442193209B013348
:10371000072B209301DC083408E01FAA59465046C5
:1037200002F056FF002840F033862CAC0A9B33444D
:103730000A932B78002B00F0248600226B1C8DF856
:103740005F2011464FF0FF39099215460A205E1C92
:103750001B7805960293029B203B582B00F26A824D
:10376000DFE813F05C00680268026C00680268021F
:1037700068026802680268026F00590068027A00F5
:103780007D006802A400B600B600B600B600B60020
:10379000B600B600B600B6006802680268026802A9
:1037A000680268026802680268026802E6001201A4
:1037B000680212016802680268026802C9006802B1
:1037C0006802590168026802680268026802A00182
:1037D000680268026700680268026802680268029C
:1037E00068026802680268026802DD006100120176
:1037F00012011201CC00610068026802CF00680269
:103800003B015B017601DA00680287016802A201D0
:1038100068026802BA0101222B2102E009B90122E3
:103820002021059B93E7002A00F087808DF85F1028
:1038300083E00AB18DF85F10244B51E145F001059A
:10384000EFE73E680996002E07F1040301DB1F46EF
:10385000E7E7764209961F4645F00405E1E7059E35
:10386000059B367802962A2E03F1010302D04FF011
:1038700000090AE0D7F8009005933E1DB9F1000F4A
:103880003746CEDA4FF0FF39CBE70593029B303B4A
:10389000092B08D800FB0939059B1E4616F8013B89
:1038A00002933346F1E749EAE97954E745F08005A8
:1038B000B7E700BFAFF30080000000000000000089
:1038C000E071000800720008207200087D71000895
:1038D00000230993029B099E303B00FB06330993AA
:1038E000059B1E4616F8013B0293029B0596303B52
:1038F000092BEFD92FE745F0080592E745F0400581
:103900008FE7059B1B786C2B03D1059B0133059337
:1039100002E045F0100584E745F0200581E73B1DF6
:10392000039300263B688DF888308DF85F6090E146
:103930000AB18DF85F1045F01005AA0608D50737C3
:1039400027F0070707F108030393D7E900670EE0A4
:1039500015F0100F07F1040302D003933E6805E051
:103960003E68039315F0400F18BF36B2F717002ECC
:1039700077F1000380F2DE8076424FF02D0367EB93
:1039800047078DF85F30D5E00AB18DF85F10073733
:1039900027F0070707F10803039397ED007B8DEDF0
:1039A000067B069B1293079B23F0004313934FF073
:1039B000FF32AB4BDDE91201FDF7D4F8002840F0EF
:1039C000EE844FF0FF32A64BDDE91201FDF7ACF8B3
:1039D000002840F0E48400F0FBBD0AB18DF85F10D0
:1039E00015F0200F07F1040307D00A993A68CE17A3
:1039F00008463146C2E900010BE0E90606D46A0632
:103A000004D53A68BDF82810118002E03A680A9996
:103A100011601F4669E645F0100515F0200309D036
:103A2000073727F0070707F10803D7E90067039373
:103A300000237BE03A1D15F01001039205D115F02B
:103A4000400302D03E880027F2E73E6800276DE081
:103A50003B1D0393302378228DF86030814B3E6804
:103A60001193002745F002058DF861200223029290
:103A70005CE000263B1DB1450393D7F800808DF82C
:103A80005F600ADB4A4631464046FCF7C9FB002826
:103A900000F0EA80C8EB0009E7E04046FCF7B8FB1D
:103AA0008146E2E045F01005AE0608D5073727F05D
:103AB000070707F108030393D7E900670AE03B1DF6
:103AC00015F0100F039303D1680601D53E8800E07E
:103AD0003E680027012329E00AB18DF85F10614B91
:103AE0001193A90608D5073727F0070707F1080340
:103AF0000393D7E900670AE03B1D15F0100F03930D
:103B000003D16A0601D53E8800E03E680027EB0736
:103B10000BD556EA070308D030238DF860309DF8A6
:103B200008308DF8613045F00205022300228DF83F
:103B30005F2000E00123B9F1000FC0F25A8556EA78
:103B4000070225F0800103D1B9F1000F5FD006E034
:103B50000D46012B25D0022B46D0294607E00D4605
:103B6000012B22D0022B3DD02946002600270DF143
:103B7000B008F20842EA4772F80806F00703074661
:103B80001646303356EA070208F8013DF1D1E8073E
:103B900048D5302B46D0302308F8013C08F1FF38D7
:103BA00040E0002F08BF0A2E05D20DF1F008303694
:103BB00008F8416D29E00DF1B008304639460A2277
:103BC0000023FDF70DF8303208F8012D00233046B0
:103BD00039460A22FDF704F806460F4656EA07035F
:103BE000EBD112E0002600270DF1B00806F00F031C
:103BF000119AD35C08F8013D330943EA07733A0987
:103C00001E46174656EA0703F0D129460AE03BB99B
:103C1000EA0705D50DF1F008302308F8413D01E031
:103C20000DF1B0084E460DF1B009C8EB09090D467B
:103C300000271BE00AB18DF85F10029B002B00F0FB
:103C4000A0839DF808308DF8883000268DF85F60DD
:103C500003974FF0010937460DF1880806E000BFD1
:103C6000FFFFEF7F8E710008064637464E4533460C
:103C7000B8BF4B460B939DF85F3013B10B9B0133DC
:103C80000B9315F0020314931EBF0B9B02330B938F
:103C900015F08403159339D1099B0B9A9B1A002BBD
:103CA0000C9333DD0C9B102BA64B236018DD1023E7
:103CB0006360219B10332193209B0133072B2093BA
:103CC00001DC083408E01FAA5946504602F080FC87
:103CD000002840F05D832CAC0C9B103B0C93E1E77B
:103CE0000C9B63600C9A219B13442193209B01330E
:103CF000072B209301DC083408E01FAA59465046E0
:103D000002F066FC002840F043832CAC9DF85F3045
:103D1000BBB10DF15F03236001236360219B01337D
:103D20002193209B0133072B209301DC083408E00A
:103D30001FAA5946504602F04BFC002840F0288349
:103D40002CAC149BB3B118AB236002236360219B9E
:103D500002332193209B0133072B209301DC08348D
:103D600008E01FAA5946504602F032FC002840F0F5
:103D70000F832CAC159B802B35D1099B0B9A9B1A7A
:103D8000002B30DD704A2260102B18DD102262609B
:103D9000219A10322192209A0132072A209201DCC6
:103DA00008340AE01FAA594650460C9302F010FC52
:103DB000002840F0ED820C9B2CAC103BE2E7219AEE
:103DC000636013442193209B0133072B209301DC74
:103DD000083408E01FAA5946504602F0F9FB0028B3
:103DE00040F0D6822CACC9EB0606002E2EDD564BD9
:103DF0002360102E16DD10236360219B1033219366
:103E0000209B0133072B209301DC083408E01FAA14
:103E10005946504602F0DCFB002840F0B9822CAC39
:103E2000103EE4E7209B2198666001330644072B8F
:103E30002196209301DC083408E01FAA5946504619
:103E400002F0C6FB002840F0A3822CACEB0514D492
:103E5000219B84E800034B442193209B0133072BD3
:103E6000209340F344821FAA5946504602F0B0FB0B
:103E7000002840F08D822CAC3AE2029B652B40F387
:103E8000AD8100220023DDE90601FCF739FE0028A0
:103E90005ED02E4B236001236360219B013321936D
:103EA000209B0133072B209301DC083408E01FAA74
:103EB0005946504602F08CFB002840F069822CAC39
:103EC000199B049A934202DBEF0740F111820D9B8C
:103ED0002360089B6360089A219B13442193209BD5
:103EE0000133072B209301DC083408E01FAA594650
:103EF000504602F06DFB002840F04A822CAC049B37
:103F00005E1E002E40F3F4810F4F4FF01008102E6C
:103F100040F35981219B10332193209B0133072BC0
:103F200084E88001209301DC083408E01FAA594688
:103F3000504602F04DFB002840F02A822CAC103E87
:103F4000E5E700BFB1710008C17100089F7100086A
:103F5000199B002B7CDC9F4B236001236360219B1A
:103F600001332193209B0133072B209301DC08347C
:103F700008E01FAA5946504602F02AFB002840F0EC
:103F800007822CAC199B23B9049B13B9EE0740F1AF
:103F9000AF810D9B2360089B6360089A219B1344AB
:103FA0002193209B0133072B209302DC04F10803AB
:103FB00008E01FAA5946504602F00AFB002840F0CC
:103FC000E7812CAB199E7642002E30DD824F102403
:103FD000102E16DD219A1F6010322192209A5C600B
:103FE0000132072A209201DC083308E01FAA594653
:103FF000504602F0EDFA002840F0CA812CAB103E8A
:10400000E6E7754A83E84400219A1644209A2196EF
:104010000132072A209201DC083308E01FAA594622
:10402000504602F0D5FA002840F0B2812CAB049A39
:104030005A600499219AC3F800800A442192209A78
:104040000132072A20923FF70EAF03F108044FE137
:10405000049BBB42A8BF3B46002B1E4615DD636098
:10406000219BC4F8008033442193209B0133072B0C
:10407000209301DC083408E01FAA5946504602F09C
:10408000A7FA002840F084812CAC002EACBFBE1BE8
:104090003E46002E30DD4FF010094F4B2360102EAE
:1040A00016DD219BC4F8049010332193209B01332B
:1040B000072B209301DC083408E01FAA594650461C
:1040C00002F086FA002840F063812CAC103EE4E751
:1040D000219B66601E44209B21960133072B209371
:1040E00001DC083408E01FAA5946504602F070FA75
:1040F000002840F04D812CAC199B049A9342474410
:1041000001DBE80717D50D9B2360089B6360089AC5
:10411000219B13442193209B0133072B209301DC27
:10412000083408E01FAA5946504602F051FA002808
:1041300040F02E812CAC049B049A08EB0306199BDB
:10414000F61BD31A9E42A8BF1E46002E14DD219BEB
:10415000276033442193209B66600133072B209313
:1041600001DC083408E01FAA5946504602F030FA34
:10417000002840F00D812CAC199B049A002EA2EB74
:104180000303ACBF9E1B1E46002E40F3B180124FAE
:104190004FF01008102E16DD219B10332193209B29
:1041A0000133072B84E88001209301DC083408E008
:1041B0001FAA5946504602F00BFA002840F0E8804A
:1041C0002CAC103EE6E7044B84E84800219B1E44DB
:1041D000219642E69F710008C1710008049B012BE3
:1041E00001DCE90773D501236360219BC4F80080DB
:1041F00001332193209B0133072B209301DC0834EA
:1042000008E01FAA5946504602F0E2F9002840F0A3
:10421000BF802CAC0D9B2360089B6360089A219B98
:1042200013442193209B0133072B209301DC083496
:1042300008E01FAA5946504602F0CAF9002840F08B
:10424000A7802CAC00230022DDE90601FCF758FC16
:10425000049B5E1EB8B908F1010384E84800219B65
:10426000049A013B13442193209B0133072B209395
:1042700034DD1FAA5946504602F0AAF9002840F042
:1042800087802CAC2BE0002E29DDA64F4FF01008C4
:10429000102E15DD219B10332193209B0133072B1A
:1042A00084E88001209301DC083407E01FAA594606
:1042B000504602F08DF900286AD12CAC103EE7E799
:1042C000984B84E84800219B1E442196CCE70123AB
:1042D0006360219BC4F800800133C4E708341BAB42
:1042E0002360109B6360109A219B1344B4E508344B
:1042F0006A070BD40A9B099A0B998A42ACBF9B1898
:104300005B180A93219B002B35D02EE0099B0B9A5A
:104310009D1A002DEEDD1026834B2360102D13DD3A
:10432000219B666010332193209B0133072B209340
:1043300001DC083406E01FAA5946504602F048F94D
:1043400030BB2CAC103DE7E7219B65601D44209BF2
:1043500021950133072B2093CCDD1FAA59465046E7
:1043600002F036F90028C5D012E01FAA594650467F
:1043700002F02EF960B900232093039F2CACFFF7C5
:10438000B4B9219B23B11FAA5946504602F020F927
:10439000BBF80C305B063FF58BA90A982FE1DDE9ED
:1043A000062310461946FCF7DDFB60B15F4B604AFF
:1043B000029925F080054729CCBF904698464FF0DA
:1043C0000309002651E4B9F1FF3F0AD0029B23F014
:1043D0002003472B07D1B9F1000F08BF4FF00109A7
:1043E00001E04FF0060945F480730C93079B002B06
:1043F00007DA069B0E93079B03F100430F932D23CF
:1044000004E09DED067B8DED0E7B00230B93029B5C
:1044100023F02007462F04D0452F05D109F10106CE
:1044200003E04E46032101E04E4602211DAB0193FD
:104430001AAB0093324619AB9DED0E0B504600F0BF
:104440001BFA472F804602D1EB0740F1CE8008EBE4
:104450000603462F049311D198F80030302B09D170
:1044600000220023DDE90E01FCF74AFB10B9C6F17A
:1044700001061996049A199B1A44049200220023FB
:10448000DDE90E01FCF73CFB08B9302202E0049B99
:104490001D9307E01D9B0499994203D9591C1D9156
:1044A0001A70F7E71D9B472FC8EB0303049308D14D
:1044B000199BDF1C01DB994569DA029B023B0293E1
:1044C00002E0029B652B4BDC199B9DF808208DF8C0
:1044D0006C20013B002B1993BABF5B422D222B228B
:1044E000092B8DF86D2025DD0DF17B020A2093FB51
:1044F000F0F100FB11333033092902F8013D0B467E
:10450000F5DC303302F8013C511E0DF16E030DF164
:104510007B0081421A4614D211F8012B03F8012BBB
:10452000F7E700BFC1710008B1710008757100089C
:1045300079710008302213448DF86E208DF86F30A9
:104540001CAA1BABD31A049A1093012A03EB02098D
:1045500002DC15F0010732D0089B002799442EE0B9
:10456000029B662B13D1199B002B07DDB9F1000FBD
:1045700001D1EE0721D5089A134406E0B9F1000FE6
:1045800001D1ED0714D5089B01334B4415E0199B6D
:10459000049A934203DBE8070DD5089A06E0049AD3
:1045A0000899002B0A4405DCC3F10103134402E01F
:1045B000012302E0134667220292199F99460B9B42
:1045C00013B12D238DF85F300C9D0026FFF74EBBF5
:1045D00000220023DDE90601FCF79CFA10B12D232F
:1045E0008DF85F30074B084AE2E61D9B1B1A0493C7
:1045F0005EE756EA07027FF4ACAAFFF7B1BA3DB016
:10460000BDE8F08F6D7100087171000870B50C463F
:104610008989ADF58D6D21F00201ADF80C10616E48
:104620001991E189ADF80E10216A0891A16A0A91E9
:104630001AA9009104914FF4806102910591002123
:10464000069169460646FEF7E7FF051E07DB694649
:10465000304600F041FF002818BF4FF0FF35BDF88D
:104660000C305B0648BFA389284644BF43F0400393
:10467000A3810DF58D6D70BD324B70B51D6806467A
:104680000C4625B1AB6913B9284600F08FFF2E4BBD
:104690009C4201D16C6808E02C4B9C4201D1AC6873
:1046A00003E02B4B9C4208BFEC68B4F90C309AB283
:1046B00015071DD4D00602D4092232603AE0510712
:1046C00012D5616B41B104F14403994202D03046E6
:1046D00001F034F800236363A38923F02403A3814A
:1046E0000023636023692360A38943F00803A38147
:1046F00023694BB9A38903F42073B3F5007F03D07A
:104700002146304601F042F9A28912F0010305D09A
:104710000023A36063695B42A36103E0920758BF73
:104720006369A36023695BB9B4F90C3003F08000BE
:1047300080B230B143F04003A3814FF0FF3070BD31
:10474000002070BD0C010020E0710008007200081C
:10475000207200082DE9F74F03690C699C428046DE
:1047600000F38380013C01F114074FEA840E00F14D
:10477000140657F8245006EB0E030193013556F842
:104780002430B3FBF5F507EB0E09002D39D04FF0BF
:10479000000A3846B446D34650F8042B93B205FBC2
:1047A00003A34FEA134A9BB2C3EB0B03120CBCF8F2
:1047B00000B005FB02A213FA8BF34FEA124A1FFA6C
:1047C00082FBDCF80020CBEB124202EB23429BB2CF
:1047D00043EA024381454FEA224B4CF8043BDBD2CB
:1047E00056F80E306BB9019B043B9E421A4602D329
:1047F000C8F8104005E01268043B002AF8D1013CDB
:10480000F3E7404601F049FD00282CDB0135304636
:104810004FF0000E57F8041BD0F800C08AB2C2EB6C
:104820000E03090C13FA8CF3C1EB1C4202EB23427A
:104830009BB243EA0243B9454FEA224E40F8043B9B
:10484000E8D256F8242006EB840362B9043B9E426A
:104850001A4602D3C8F8104005E01268043B002A4B
:10486000F8D1013CF3E7284600E0002003B0BDE8A2
:10487000F08F0000000000002DE9F04F59EC108B84
:1048800097B0456A0691824609921093209CCDE923
:10489000008945B9102001F0B5F8CAF82400456038
:1048A00085600560C560DAF82430196859B15A6826
:1048B0004A60012393408B60504601F015FBDAF803
:1048C000243000221A60019B9F4A002BBFBF0123A6
:1048D0002360019B23F00043B8BF0193019FA4BF55
:1048E0000023236027F000431B0D1B0593421DD1BD
:1048F000109A42F20F731360009B43B9934A944B92
:10490000C7F31300002814BF1846104600E0904873
:10491000219B002B00F04A85C37813B100F10803F6
:1049200000E0C31C219A136000F040BDDDE90045A2
:104930000022002320462946FCF7E2F8804658B1C1
:10494000109A01231360219B002B00F022858148DF
:104950001860013800F02ABD14AA15A945EC104BC7
:10496000504601F015FDC7F30A5602905EB1C5F33B
:10497000130343F07F51204641F44011A6F2FF3665
:10498000CDF844801DE0159B149E1E4406F2324370
:10499000202B0ADD009A06F21240C3F1400322FAEE
:1049A00000F007FA03F3184304E0C3F12000009B72
:1049B00003FA00F0FBF7C6FD0123A1F1F871013EF7
:1049C00011930022644BFBF77FFC59A3D3E900232A
:1049D000FBF72EFE58A3D3E90023FBF777FC044630
:1049E00030460D46FBF7BEFD55A3D3E90023FBF788
:1049F0001FFE02460B4620462946FBF767FC04468D
:104A00000D46FCF7C5F800228346002320462946C0
:104A1000FCF780F858B15846FBF7A4FD02460B4658
:104A200020462946FCF76CF808B90BF1FF3BBBF1B7
:104A3000160F0DD8494901EBCB01DDE90023D1E97F
:104A40000001FCF785F830B10BF1FF3B002300E0DB
:104A500001230D9300E00D90149B9E1B731E059384
:104A600043BFC3F10009002305934FF00009BBF1D8
:104A7000000F07DB059BCDF830B05B4405930023A6
:104A8000079306E0CBF1000307930023CBEB090962
:104A90000C93069B092B27D8052BC4BF043B069318
:104AA000069BA3F10203CCBF00250125032B20D8D0
:104AB000DFE803F0060E0204012302E0012308E010
:104AC00000230893099B002B1CDD039398461EE0EE
:104AD00000230893099B5B4403F1010803934346B9
:104AE000012BB8BF012312E001250023069308958E
:104AF00001E0012308934FF0FF330393984600220F
:104B0000122303E00123039398461A460992DAF828
:104B1000244000226260042101F114029A421FD84D
:104B20006268013262604900F6E700BFAFF30080BF
:104B300061436F63A787D23FB3C8608B288AC63FA3
:104B4000FB799F501344D33F0000F07FD1710008E0
:104B5000DA710008A07100080000F83F50720008E8
:104B60006168504601F08BF9DAF8243020601B6848
:104B70000493B8F10E0F00F25D81002D00F05A8110
:104B80009DED007BBBF1000F8DED0E7B31DDA04A6A
:104B90000BF00F0302EBC30393ED007B4FEA2B14E2
:104BA000E2068DED0A7B0CD59A4BDDE90E01D3E9C7
:104BB0000823FBF767FE04F00F04CDE9000103268C
:104BC00000E00226934D6CB1E30708D5DDE90A0148
:104BD000D5E90023FBF72CFDCDE90A01013664106D
:104BE0000835F0E7DDE90A23DDE90001FBF74AFEBD
:104BF00020E0CBF1000404B3854B864D04F00F0296
:104C000003EBC203D3E90023DDE90E01FBF710FD3E
:104C1000CDE9000124110023022654B1E70705D590
:104C2000D5E90023FBF704FD0136012364100835A4
:104C3000F3E71BB1CDE9000100E002260D9BEBB1CB
:104C4000DDE900450022744B20462946FBF762FF50
:104C5000A0B1B8F1000F11D0039B002B40F3E68008
:104C60000BF1FF330A9300226C4B20462946FBF7D9
:104C7000DFFC0136CDE90001039F02E0CDF828B04A
:104C800047463046FBF76EFCDDE90023FBF7D0FC1E
:104C90000022634BFBF71AFB0446A1F15075CFB914
:104CA0000022604BDDE90001FBF70EFB22462B469C
:104CB000CDE90001FBF74CFF002840F0418222467D
:104CC00005F10043DDE90001FBF724FF002840F077
:104CD0002E82ABE0089A4E4B791E002A4AD003EB95
:104CE000C103D3E9002300204F49FBF7CBFD224647
:104CF0002B46FBF7E9FA049C05460E46DDE9000168
:104D0000FBF746FF1290FBF72DFC02460B46DDE950
:104D10000001FBF7D9FA129B303304F8013B2A4615
:104D20003346CDE90001FBF7F5FE002840F0218372
:104D3000DDE9002300203849FBF7C6FA2A4633464E
:104D4000FBF7E8FE002840F0D280049BE31ABB4248
:104D50006CDA0022314B28463146FBF769FC002211
:104D600005460E462D4BDDE90001FBF761FCCDE960
:104D70000001C3E703EBC10122462B46D1E9000144
:104D8000FBF756FC049BCDE91201DC191D46DDE959
:104D90000001FBF7FDFE0646FBF7E4FB303602465A
:104DA0000B46DDE90001FBF78FFA05F8016BAC4219
:104DB000CDE900014FF0000223D11B4BDDE91201C8
:104DC000FBF784FA02460B46DDE90001FBF7C0FE63
:104DD000002840F08C80DDE9122300201249FBF707
:104DE00073FA02460B46DDE90001FBF793FEE8B1DA
:104DF00014F8013C302B04F1FF3240F0BA82144623
:104E0000F6E7064BFBF714FCCDE90001BFE700BF56
:104E100050720008187300080000F03F00002440A2
:104E200000001C40000014400000E03FDDE90E34AB
:104E30008DE81800159B002B7CDBBBF10E0F79DC95
:104E40008F4B03EBCB03D3E90067099B002B14DAEC
:104E5000B8F1000F11DC40F06C810022894B304624
:104E60003946FBF7E5FBDDE90023FBF767FE454626
:104E70004646002840F05F8166E1049C32463B468E
:104E8000DDE90001FBF7FEFCFBF782FE0546FBF7C0
:104E900069FB32463B46FBF7CBFB0B460246DDE99E
:104EA0000001FBF711FA05F1300E04F801EB049B49
:104EB000C3EB040EF045CDE900012ED102460B46AE
:104EC000FBF704FA8046894602460B4630463946CF
:104ED000FBF720FE78B942464B4630463946FBF791
:104EE0000FFE002800F04782E90704D443E2DDF812
:104EF00028B000E01C4614F8012C392A04F1FF33D5
:104F000007D1049A9A42F5D1049930220BF1010B92
:104F10000A701A7801321A702DE200225A4BFBF700
:104F200087FB00220023CDE90001FBF7E9FD002803
:104F3000A4D020E2089A002A2DD0069A012A0ADC81
:104F4000119A12B103F2334302E0149BC3F136030A
:104F5000079D4C4615E0079B08F1FF35AB42BFBFEC
:104F6000079B0795EA1A0C9BB7BF9B185D1B0C9318
:104F70000025B8F1000FB9BFC8EB090400234C4667
:104F80004346059A01211A4450469944059201F07E
:104F90004AF8064602E0079D089E4C465CB1059B18
:104FA000002B08DDA342059AA8BF2346C3EB0909DD
:104FB000E41AD31A0593079B002B1DDD089BABB1A8
:104FC00085B131462A46504601F0C8F8029A01469A
:104FD0000646504601F030F802990746504600F068
:104FE00083FF0297079B5A1B06D000E0079A02999D
:104FF000504601F0B3F802900121504601F013F839
:105000000C9B05465BB31A460146504601F0A6F8D4
:10501000069B012B054618DC009B83B9019BC3F35B
:10502000130373B9019B23F000473F0D3F054FB1B8
:10503000059B013309F101090593012702E00027CF
:1050400000E0009F0C9B73B100E000272B6905EB8B
:105050008303186900F09AFFC0F1200004E0069B6A
:10506000012BD9DD0C9F0120059B184410F01F0077
:105070000ED0C0F12003042B08DDC0F11C0008E0B5
:1050800050720008000014400000244006D018466A
:105090001C30059B0344814404440593B9F1000F7F
:1050A00005DD4A460299504601F0A6F80290059B9C
:1050B000002B05DD29461A46504601F09DF80546AD
:1050C0000D9BEBB12946029801F0E7F8002817DAAA
:1050D00000230A220299504600F01DFF089B02900F
:1050E0000BF1FF3B002B00F05881002331460A22D0
:1050F000504600F010FF039B002B064637DC33E0E0
:10510000B8F1000F2ADC069B022B27DDCDF80C80BE
:10511000039B83B929460522504600F0FCFE014658
:105120000546029801F0B9F800280DDC03E03D4681
:1051300000E000252E46099B049C6FEA030B0AE061
:10514000DDF828B03D463E46049B049A5C1C3123A2
:1051500013700BF1010BB0460026F7E0089BCDF869
:105160000C8023B9049CB1E0069B022BD0DC002C00
:1051700005DD31462246504601F03EF806469FB115
:105180007168504600F07BFE32690232044692009C
:1051900006F10C010C3000F05DFE01222146504664
:1051A00001F02AF8804600E0B046009BDDF8109040
:1051B00003F00103059329460298FFF7CBFA314625
:1051C000044600F13007029801F067F8424600906B
:1051D0002946504601F07DF8C36802463BB90146B6
:1051E0000790029801F059F8079A034600E001235E
:1051F00011465046079300F077FE079B4BB9069A7D
:105200003AB9059A2AB9392F28D0009B002B1ADC0D
:105210001BE0009A002A04DB1AD1069AC2B9059A4B
:10522000B2B9002B11DD01220299504600F0E4FFD3
:105230002946029001F031F8002802DC05D1FA0776
:1052400003D5392F0AD004F1310709F101040CE02C
:10525000002B09F101040BDD392F05D1392389F821
:10526000003009F1010954E0013789F800706DE060
:10527000049B039A04F8017CE31A9342A1463AD0B6
:1052800000230A220299504600F045FE464502904E
:105290004FF000034FF00A023146504604D100F0AF
:1052A0003AFE0646804686E700F035FE4146064651
:1052B00000230A22504600F02EFE80467BE70023A2
:1052C0000A220299504600F026FE029029460298D2
:1052D000FFF740FA00F1300704F8017B049B039AC2
:1052E000E31A9342EBDB049B012AACBF9B1801330A
:1052F000B0469946002601220299504600F07CFFF4
:105300002946029000F0C9FF002802DC15D1FB07F6
:1053100013D54C4614F8013C392B04F1FF3209D166
:10532000049B934204D10BF1010B3123049A02E058
:105330001446EFE70133137008E04C4614F8013CC3
:10534000302B04F1FF3201D11446F7E729465046CD
:1053500000F0CAFDB8F1000F0DD02EB1464503D0C4
:105360003146504600F0C0FD4146504600F0BCFDBD
:1053700001E0DDF828B00299504600F0B5FD0023A9
:10538000109A23700BF101031360219B1BB11C6069
:1053900001E008480AE0049808E0039B002B3FF76F
:1053A000E1AE069B022B7FF7DDAEB1E617B0BDE89C
:1053B000F08F00BF9F710008B1F90C2093B22DE966
:1053C000F041054618070C4660D44B6842F4006271
:1053D000002B8A8102DC0B6C002B17DDE66AAEB174
:1053E00002F48052002392B22F682B600AB1606DE4
:1053F00015E0216A01232846B047411C0FD12B68D4
:105400006BB11D2B01D0162B03D12F600020BDE8FE
:10541000F081A38943F04003A381BDE8F081A38913
:105420005A0705D56368C01A636B0BB1236CC01AA9
:1054300000230246E66A216A2846B047431CA38936
:1054400006D129681D293ED8224ACA40D6073AD536
:1054500023F400631BB200226260D9042269A38195
:10546000226004D5421C01D12B6803B96065616BD1
:105470002F600029CAD004F14403994202D0284683
:1054800000F05CF900206063BDE8F0810F69002F37
:10549000BCD09B070E6808BF4B690F6018BF002384
:1054A000C7EB06088B6002E00744C0EB0808B8F1C0
:1054B000000FABDD43463A46216AA66A2846B0474C
:1054C0000028F1DCA38943F04003A3814FF0FF30B3
:1054D000BDE8F0810100402038B50B6905460C4657
:1054E000DBB118B183690BB900F060F80C4B9C423A
:1054F00001D16C6808E00B4B9C4201D1AC6803E021
:10550000094B9C4208BFEC68B4F90C302BB1214622
:105510002846BDE83840FFF74FBF002038BD00BF28
:10552000E07100080072000820720008014900F0D4
:10553000C3B900BFD5660008002310B50446036058
:105540004360836081814366C281036143618361FB
:10555000194608225C3000F088FC054B6362054B5D
:10556000A362054BE362054B2462236310BD00BFB9
:105570004D6400086F640008A7640008CB6400084D
:1055800070B568234D1E5D430E4605F1740100F0B1
:1055900041FA044640B1002180E842000C30A0608E
:1055A00005F1680200F061FC204670BD836910B50A
:1055B00004464BBBC0F8D830C0F8DC30C0F8E0304F
:1055C000124B134A1B688262984204BF0123836115
:1055D00000F020F86060204600F01CF8A060204633
:1055E00000F018F80022E06004216068FFF7A4FFD3
:1055F00001220921A068FFF79FFF02221221E06823
:10560000FFF79AFF0123A36110BD00BF4472000899
:105610002D550008F8B51C4B1E68B369074613B931
:105620003046FFF7C3FFD836B4687368013B04D433
:10563000B4F90C507DB16834F8E733680BB13668C3
:10564000F2E704213846FFF79BFF30600028F6D1CF
:105650000C233B60F8BD4FF6FF73E3810123A38168
:1056600065662560A560656025616561A5610822A4
:10567000294604F15C0000F0F8FB6563A563A564AE
:10568000E5642046F8BD00BF4472000870477047CB
:105690002DE9F843254FDFF8A0808946064600F043
:1056A000ECFBBB685D68A8F1110425F003052C44F0
:1056B000C9EB0404B4FBF8F4013C08FB04F44445D2
:1056C00005DA304600F0DAFB0020BDE8F88300215F
:1056D000304600F0ABFEBB682B449842F1D16142EA
:1056E000304600F0A3FE013010D10021304600F01A
:1056F0009DFEBA68831A0F2BE3DD0D490968401A35
:105700000C4943F0010308605360DAE7BB68094ABB
:105710002D1B45F001055D60136830461C1B1460AD
:1057200000F0ACFB0120BDE8F88300BF6C01002055
:1057300078050020A8050020800000002DE9F04138
:1057400004468846002900F0AD8000F096FB58F82A
:10575000042C554D22F00100A8F108031F18A96878
:105760007E688F4226F0030602F001021BD130440E
:105770003AB958F8082C9B1A10449968DA68CA603C
:10578000916040F001025A60AB60484B1B68984240
:1057900004D3474B20461968FFF77AFF2046BDE83F
:1057A000F04100F06BBB7E607AB958F8081C5B1AB8
:1057B0000844996805F1080E714508D0D3F80CE04B
:1057C000C1F80CE0CEF8081002E0002200E001224F
:1057D000B9194968C9070ED43044B96842B9354E81
:1057E000B14205D16B612B610122D960996002E061
:1057F000FE68CE60B16040F0010159601850002A87
:10580000CCD1B0F5007F12D2C0088110012202FA7B
:1058100001F16A6801300A436A6005EBC00255F87D
:1058200030109960083ADA6045F8303038E0420AC2
:10583000042A02D88209383215E0142A01D85B32D2
:1058400011E0542A02D8020B6E320CE0B2F5AA7FA6
:1058500002D8C20B773206E040F254518A429ABF16
:10586000820C7C327E22511C05EBC20655F83110A9
:105870000D4F8E420BD10121921001FA02F279688C
:1058800011437960314608E089688E4204D04A6845
:1058900022F003029042F7D3CE68DE609960B360D5
:1058A000CB607BE7BDE8F0816C010020740500202F
:1058B000A4050020740100202DE9F84380468946A4
:1058C00000F1D804002694B1A5686768013F0CD4A4
:1058D000AB89012B07D9B5F90E30013303D0294626
:1058E0004046C84706436835F0E72468EBE7304692
:1058F000BDE8F88338B5074C002305460846114635
:10590000236001F07DFB431C02D1236803B12B60AF
:1059100038BD00BF2C060020004870474801002019
:10592000014B1868704700BF6801002000487047AD
:105930001001002070B50E46B1F90E10002990B08C
:1059400014461D460ADAB38903F08003002298B298
:105950002A60B0B140232360104615E001AA00F090
:105960005BFF0028EFDB029A02F47042A2F50053BD
:105970005A425A414FF480632A604FF4006023601A
:1059800002E04FF48063236010B070BD8B8973B563
:105990009E0705460C4610D401AB6A46FFF7CAFFC6
:1059A00000990646284600F035F868B9B4F90C307D
:1059B0009A0522D443F00203A38104F14703236034
:1059C00023610123636118E00D4BAB62A389206062
:1059D00043F08003A381009B6361019B20614BB175
:1059E000B4F90E10284601F073F818B1A38943F0FA
:1059F0000103A381A0893043A08102B070BD00BF24
:105A00002D550008024B0146186800F003B800BF8E
:105A10000C0100202DE9F04F01F10B04162C85B08C
:105A2000814603D934F0070401D502E010248C42EA
:105A300003D20C23C9F80030EAE1484600F01DFA11
:105A4000B4F5FC7F9E4D17D204F108022A44A2F15E
:105A5000080156688E424FEAD40302D1D668B2429A
:105A600008D07368F268B16823F00303CA60334456
:105A700091602FE002333DE0630A1AD0042B02D874
:105A8000A309383318E0142B01D85B3314E0542BEE
:105A900002D8230B6E330FE0B3F5AA7F02D8E30BD5
:105AA000773309E040F25452934204D8A30C7C337C
:105AB00002E03F2300E07E235A1C05EBC202A2F164
:105AC000080056680CE00029F16808DBB368D9606B
:105AD0008B60B3185A6842F001025A60A3E10E4687
